:100000000C944A040C9472040C9472040C947204C0
:100010000C9472040C9472040C9472040C94720488
:100020000C9472040C9472040C9482220C9414218B
:100030000C9472040C9472040C9472040C94720468
:100040000C9472040C9472040C9472040C94720458
:100050000C9472040C9472040C9472040C94E11CC1
:100060000C9472040C9472040C9472040C94720438
:100070000C9472040C9472040C9472040C94720428
:100080000C9472040C9472040C9472040C94720418
:100090000C94B41B0C9472040C9472040C947204AF
:1000A0000C9472040C9472040C947204011E041ECD
:1000B000F31DF71DFD1D251E251E251E081E0C1EE9
:1000C000101E161E1A1E251E201E5F0002020304AB
:1000D000030404050800FF06FF06000126024D0385
:1000E000582005007E032107316333520022079B0D
:1000F0006E93AC00230D3D6257A6345435549912CB
:1001000000240D3D629BC1AAC106296D100125087E
:10011000AB6613536700260A3C621753B36AA60006
:100120002705196F332807B262A79A012908B2621E
:100130001353A5002A0A2C6213931A49C5002B0AEF
:100140002D629B511C32A3082C079B5EA74A002DF1
:10015000060C6A33022E079B5E9756022F0A346202
:100160000F32886D90013008B36257B92A00310709
:10017000B36297646B320B3462A762064965300242
:10018000330A34623362D4482605340A34621B557C
:1001900035620609350A34623334D8482605360AF2
:1001A0003462A73258512605370C3462333288192D
:1001B000C40C2200380A3462A76252512605390A5B
:1001C0003462A7A24C1B24053A07AA6233E2083B1B
:1001D00008B35E672355023C09B3629BCA0C320820
:1001E0003D081C6633321A013E0AB3629341063160
:1001F00095003F09B362D74C192600400C455E2B91
:10020000A35C492559430541093462A7A21C530642
:10021000420A3462B3E248518E04430B3462A7A20F
:100220000619C4A40044093462B3A2732400450B28
:10023000346233345819643002460B346233345814
:1002400019649001470A3462A7A206692605480985
:10025000346213E59866004907B362B3626B4A0AD9
:1002600034623733C82095114B093462135592A973
:10027000334C0C3462934106196490C1084D093423
:100280006213C711CD004E09346213D75867004F6F
:10029000093462A7A2332900500A3462B3A21C2990
:1002A000830C51093C5EA7A25C6E14520A3462B3FF
:1002B000A21C29CA00530A3462A762CAA84C0A5475
:1002C00008B362B362170055083462133D930256B7
:1002D000093462139D492A005709346213CD71C451
:1002E00000580A34621365922ACA00590D35629388
:1002F0008106A906196514015A0A34623332886DE1
:1003000030025B07B3623362735C0C346293414624
:1003100019659441005D07B362339B235E069372B7
:10032000D7005F060C5E3302600692721303610809
:10033000246237A24C03620B34629341062BCA91AC
:10034000006307A362373310640A34620F32482314
:10035000CA3465092462A7D2C84001660934625BC9
:1003600095338308670A2C5EA762DA202900680AA1
:1003700034629341062B9A016908B3629791AC06E7
:100380006A09BB5E9B61A92A006B0B34629341062C
:1003900071A428036C07B36223BB066D092562A311
:1003A0005A2AA9026E072462B3A2196F082462A711
:1003B000A24C0A700A2C5EB3E248196400710A2C40
:1003C0005E3762DA2083007209246293920D320054
:1003D0007308A36237325800740B346297419C193A
:1003E000A498007507246213CD347607A36293ACFA
:1003F0000A7709256293814AAA0B7808246213932D
:100400005431790A2C5E13651A3129007A08246266
:10041000336239027B0B3C62AB324A1AC58C047CD6
:10042000053163737D0C3C62A351CC486594240074
:100430007E071472975402000000005F000202035E
:1004400003030404050700FF06FF06000112022F44
:10045000032C200500BD012106B1B1192922075B3B
:10046000B7495600230A2DB1AB86AA86AA00240AF2
:100470002DB15B35D820A505250934B1C920F60674
:100480000126092CB18B29563105270599B7192862
:100490000772B153CD00290872B189A952002A0709
:1004A0006BB149D56A2B0A2DB1CD280E9951042C78
:1004B000075BAF5325002D060CB519012E0652B16E
:1004C00019012F0724B307B10D300873B1AB5C15C8
:1004D00000310773B14BB235320A34B1533183580E
:1004E0008E00330B34B11919248D645200340A3450
:1004F000B18DAA1A318304350A34B1191A6C2493C8
:1005000002360A34B15319AC289302370B34B119AF
:1005100019C40C620611380A34B15331A928930268
:10052000390A34B15351A60D92023A076AB11971D2
:10053000043B0833AFB3912A013C086BB14D35C879
:10054000203D081CB319198D003E096BB1C92083E9
:1005500054023F0973B16BA60C1300400934B15328
:1005600051DD4801410934B153518E2903420A3407
:10057000B15971A4284702430B34B15351830C6223
:100580005200440934B159D1391200450B34B11924
:100590001AAC0C321801460B34B1191AAC0C32C823
:1005A00000470A34B153518334D300480834B18929
:1005B000724C33490773B159B1354A0B34B107193D
:1005C0006490814C0A4B0A34B1892A4999CA004C7B
:1005D0000C34B1C920830C32C860044D0934B18990
:1005E000E38866004E0834B1896BA9334F0934B1F2
:1005F00053D1991400500A34B159518E9441065187
:100600000A3CAF53D15C49A300520934B159518E11
:10061000D40C530A34B1533165542605540773B1D1
:1006200059B10B550834B1899E4901560934B18935
:10063000CE241500570934B189E6386200580A34CF
:10064000B1893249156500590873B1495659015AA3
:100650000A34B11919C43618015B0773B119B139DD
:100660005C0924B3C928A38C025D0773B199CD112D
:100670005E0553B96B5F060CB11901600652B9896A
:1006800001610824B11B51A902620B34B1C9208356
:1006900015E54800630723B19B1908640A34B107C4
:1006A00019A411651A650924B1536964A00066098B
:1006B00034B1ADCA99410467092CAF1B31A98C062E
:1006C000680A34B1C9208315CD00690873B1CB48DD
:1006D00056036A097BAFCDB05415006B0B34B1C91A
:1006E000208394642A036C0773B1915D036D082421
:1006F000B1496948196E0724B159D10C6F0824B16A
:100700005351260570092CAF59518E940171092C53
:10071000AF1B51A60D02720824B15951830C730806
:1007200024B11B1A0D05740A34B1CB20CE0C321241
:10073000750724B189661A760763B14956057707AC
:1007400024B189721C780824B18949AA1879092C26
:10075000AF89329525007A0824B119B11C017B08B4
:1007600073B14D49D6207C05B1B1397D0A73B1C949
:1007700020AA9822007E0714B94B2A01000000002D
:100780000000000200090F0000030401000C00003B
:100790000000000000000000000000000000000455
:1007A0000802011040804010204080408008020470
:1007B00001804020100201108010204040200404DD
:1007C00004040403040502020202040302020202FA
:1007D00006060606060604040202020404000000DF
:1007E000002300260029002C002F00000000002517
:1007F0000028002B002E00310000000000240027FC
:10080000002A002D00300012010002EF02014041D9
:1008100023368000010102030112010002000000E2
:100820004041233680000101020301417264756971
:100830006E6F204C4C430041726475696E6F204CA2
:10084000656F6E6172646F0004030904080B000297
:100850000202010009040000010202000005240058
:1008600010010524010101042402060524060001EB
:100870000705810310004009040100020A0000007E
:100880000705020240000007058302400000FA0F3E
:10089000871BF92311241FBECFEFDAE0DEBFCDBFE7
:1008A00012E0A0E0B1E0EAE8F9E402C005900D92A0
:1008B000A63BB107D9F725E0A6EBB2E001C01D9237
:1008C000A63DB207E1F718E0C4E9D8E004C02297DA
:1008D000FE010E94B324CE38D107C9F70E94BF1E83
:1008E0000C94C3240C940000CF92DF92EF92FF92FD
:1008F0000F931F93CF93DF936C017A01EB01E60E08
:10090000F71E00E010E0CE15DF0561F06991D60119
:10091000ED91FC910190F081E02DC6010995080F41
:10092000191FF1CFC801DF91CF911F910F91FF9057
:10093000EF90DF90CF900895262F2595259525954A
:1009400025952F59FC0120836F706F5C618308959A
:100950000F931F93CF93DF93EC018C010C5F1F4F1C
:10096000FC01EE58FF4F0190F081E02DC801099580
:100970008E3F2FEF920780F4FE01EB58FF4FCC58CB
:10098000DF4F9C0140816881C8010E946015288169
:1009900090E0820F911D888381E090E0DF91CF91FC
:1009A0001F910F910895E091130390911403E9179B
:1009B00091F0EF5FE093130397E0E99FF0011124BA
:1009C000E95EFC4FF0931603E093150391E098273E
:1009D000928381E0089580E00895E3E1F3E080816F
:1009E0008150808327E0829FC0011124895E9C4F43
:1009F00090931603809315030895E0911503F091E9
:100A0000160381E090E8968385838FEF8383848348
:100A100008951092130327E133E0309316032093D7
:100A200015038093140310920E030E94FD04E091BD
:100A30001503F09116038091C4028170828308959A
:100A4000E0911503F09116032581368128173907A7
:100A50002CF4968385838081838364830895982F03
:100A600081E0890F83FF03C081E1890F807F87FDCB
:100A700080E00895815087FD05C083FF04C0807F1A
:100A80008760089587E70895E82FE07FE6958F70E7
:100A9000E82BF0E0EC53FD4F82810895E82FE07FD2
:100AA000E6958F70E82BF0E0EC53FD4F62830895DC
:100AB0001F93CF93DF931F92CDB7DEB7182F18780F
:100AC00051F469830E9444056981882329F0829545
:100AD0008170681301C011E0812F0F90DF91CF91D9
:100AE0001F9108956F927F928F929F92AF92BF92C3
:100AF000CF92DF92EF92FF920F931F93CF93DF93EA
:100B00001F92CDB7DEB7C0901503D090160390E0CA
:100B1000612C712CE12CF12CA12CB12C00E010E007
:100B2000812C912C892F99830E944405482F4F7066
:100B30009981442319F182958170F6016281242FF5
:100B400030E05FEF540F68130DC0463011F4992464
:100B50009394F901E35EFE4F8081080F111D52301E
:100B600068F429C0463011F488248394F901E35EC7
:100B7000FE4F8081A80EB11C5230A0F1892F0E9437
:100B80002F05982F8111CECF992079F0882081F000
:100B9000C8018A199B0943E0880F991F4A95E1F71C
:100BA000E618F7088E0D9F1D34C081E090E831C033
:100BB0008FEF9FE72EC0E92FE770F0E0EB5EFE4F6E
:100BC0002081E92FF0E034E0F595E7953A95E1F7DB
:100BD000E770FF27EB5EFE4F8081289FE00CF11C41
:100BE0001124CCCFE92FE770F0E0EB5EFE4F2081BF
:100BF000E92FF0E084E0F595E7958A95E1F7E77055
:100C0000FF27EB5EFE4F8081289F600C711C112432
:100C1000B5CF0F90DF91CF911F910F91FF90EF9083
:100C2000DF90CF90BF90AF909F908F907F906F900C
:100C300008951092C5020895E6ECF2E0119283E067
:100C4000E630F807D9F71092C402109209038FEF2B
:100C500080930603809307038FE08093080310922C
:100C60000B0310920C030C9419060E941C06AEECA8
:100C7000B2E0E6EFF2E091E081E19D93819322E022
:100C8000EE3FF207D1F784E08093C60292E09093A2
:100C9000C70223E02093C80235E03093C90236E052
:100CA0003093CA022093CB029093CC028093CD0262
:100CB00084E18093FE0292E19093FF0223E120936E
:100CC000000335E13093010336E1309302032093B2
:100CD000030390930403809305030895CF9379E071
:100CE0006091C502673018F1C0E0462F50E02C2F0C
:100CF00030E0C901029684179507ACF4729FD001C9
:100D0000739FB00D1124A65CBC4F789FF001799FB2
:100D1000F00D1124E65CFC4F872F01900D928A950F
:100D2000E1F7CF5FE4CF62506093C502D9CFCF9196
:100D30000895CF93DF93C091C502CC2341F1C150F8
:100D4000C093C50289E0C89FE0011124C65CDC4F56
:100D50008E81809306038F8180930703888580931B
:100D60000803688189810E944E0560E08A810E94A3
:100D70004E058C818F3F19F06B810E944E058D814D
:100D80008F3F29F060E0DF91CF910C944E05DF9109
:100D9000CF9108958091C50299E0899FF0011124B7
:100DA000E65CFC4F8C3018F48F5F8093C502809115
:100DB00006038683809107038783809108038087D9
:100DC000CF010895EF92FF920F931F93CF93DF937C
:100DD00029E0829FE0011124C65CDC4FE881EF70BE
:100DE00021F1E13049F0F0E0E35FFE4F8081809334
:100DF000B70208EB12E002C007EB12E06981C801FC
:100E00000E949C048B818F70F80133967F018111C1
:100E100002C08DE201C088E7F80182836A81C701C0
:100E20000E949C04F701329602C0E7EBF2E01082C8
:100E300087EB92E0DF91CF911F910F91FF90EF90A0
:100E40000895CF92DF92EF92FF920F931F93CF936B
:100E5000DF93E82EF62E0E94CA06EC018E2D0E942A
:100E60004405D82E8F2D0E944405D882E982FA824B
:100E70008B83FC829FEF9D839D2D9F70913009F0A5
:100E800041C04E2D50E02F2D30E0BA01621B730B94
:100E90006032710531F0B901641B750B6032710568
:100EA00059F4D4FA002700F910E00C531D4FF80153
:100EB000EE5BFF4FF0826DC0D90164E0B595A79558
:100EC0006A95E1F7109711F0179721F48D2D856041
:100ED000D82E5FC0240F351F20FF5BC08F7009F034
:100EE00058C0D4FAEE27E0F99E27E92FF0E0EA5F38
:100EF000FC4F10811C83812F0E9444058B83C12CE1
:100F00000FEF4AC0963039F580910803D4FC02C037
:100F10008C7001C08370809308032E2D30E04F2D1C
:100F200050E0F901E41BF50B329721F40FEF0E0DA1
:100F30001CEF08C0421B530B4230510551F501E034
:100F40000E0D13E01E0D812F0E944405C82E8B83C9
:100F50001C830D8321C09430E1F4E11004C0809122
:100F600008038E7F14C087E0E81204C08091080354
:100F70008D7F0DC080E7E81204C0809108038B7F4D
:100F800006C087E7E81205C080910803877F809339
:100F90000803C12C0FEF1FEF6D2D8F2D0E944E0502
:100FA0000F3F21F06C2D802F0E944E0560E08E2DAA
:100FB0000E944E051F3F61F060E0812FDF91CF91CD
:100FC0001F910F91FF90EF90DF90CF900C944E0502
:100FD000DF91CF911F910F91FF90EF90DF90CF9015
:100FE00008958F929F92BF92CF92DF92EF92FF92DD
:100FF0000F931F93CF93DF9300D0CDB7DEB7B82EFA
:101000008A01E62EF12CC701835E9E4F7C01D80138
:10101000CD908D01CC2041F1DB2CDC0C8D2D88781E
:10102000B1F78D2D2A8369830E944405982F9F7004
:101030002A8169819923A9F09613E9CF84FB88243A
:1010400080F8912CF401EC53FD4FE35BFF4F90814E
:10105000D7018C91980F9083329790819F5F9083F6
:10106000D6CF2111DACFD3CF0F900F90DF91CF9150
:101070001F910F91FF90EF90DF90CF90BF909F90C6
:101080008F900895CF93DF931F92CDB7DEB7982F3F
:101090009878C9F469830E944405982F9F706981EC
:1010A000913089F48295817086130DC090E08C5345
:1010B0009D4FFC01E35BFF4F20812F5F2083329720
:1010C00080818F5F80830F90DF91CF910895CF93C0
:1010D000C82F109211031092120310920F03109256
:1010E00010038878C1F521E04BEB51E064E08C2FD0
:1010F0000E94F10721E046EB51E063E08C2F0E9453
:10110000F10721E04DEA51E065E08C2F0E94F107E4
:1011100020E044EA51E062E08C2F0E94F10720E0D9
:101120004DEA51E066E08C2F0E94F10761E081E119
:101130008C0F0E94420861E08FE08C0F0E944208F1
:1011400060E08FEE8C0F0E94420860E081EF8C0F10
:10115000CF910C944208CF910895FF920F931F9363
:10116000CF93DF93F62E042F90910803982311F468
:1011700080E024C0E0911503F09116031081828174
:10118000C1E0D0E0C81BD109812F0E946708FE0191
:10119000FF27EF5EFC4F80818111EACFEF011F0D29
:1011A000812F0E9444058F7019F7812F0E946708D4
:1011B00088818111DDCF015091F781E0DF91CF91DE
:1011C0001F910F91FF900895CF93DF93C091150366
:1011D000D0911603188288810E9444058983882350
:1011E00021F184FB992790F92A8129131EC08F7061
:1011F000833099F038F4813069F08230B1F40E9484
:10120000A80913C0853079F058F0863071F40E9437
:10121000AD090BC00E940E0A08C00E949E0905C0BD
:101220000E94990902C00E94A30988810E942F058B
:1012300088838111D0CFDF91CF9108951F93CF93F1
:10124000DF93182FC0911503D09116036A810E9475
:101250005805811144C0612F88810E942107E091C7
:101260001503F091160382810E94D304811104C0FA
:101270000E947205EC010FC00E94FD040E94E40868
:10128000E0911503F0911603C581D681D195C195E2
:10129000D1090E94ED04612FCE010E9420050E9419
:1012A000990680910E038823E1F0E0911503F091F7
:1012B0001603813021F46181606280810DC082302B
:1012C00081F4908180910D0398130BC0812F0E94AF
:1012D0004405682F6062812F0E944E0502C080E0A5
:1012E00001C081E0DF91CF911F9108950F931F936B
:1012F000CF93DF93EC01062F88818823A9F0E0913A
:101300001503F091160310818881180F812F0E9418
:101310001E09882339F0812F0E9444058F7011F433
:101320000111F2CF2196E8CFDF91CF911F910F915C
:10133000089561E08BEB91E00C94760961E086EB17
:1013400091E00C94760961E08DEA91E00C947609C5
:1013500060E084EA91E00C947609E0911503F09145
:101360001603828143E06FEF811111C081E00E947A
:10137000AD08882341F0E0911503F09116038081B8
:1013800082500E941E0942E061E082E010C084E0C9
:101390000E94AD08882341F0E0911503F0911603F7
:1013A000808182500E941E0942E061E088E00E9434
:1013B000AD08882341F0E0911503F0911603808178
:1013C0008E5F0E941E0960E08DEA91E00C94760920
:1013D000CF93C82F887801F58C2F0E9444058F7019
:1013E00021F08C2FCF910C941E09E0911503F09100
:1013F000160382814C2F50E0811106C02091070313
:1014000030E0205F3F4F05C02091060330E0405F91
:101410005F4F2417350729F3CF9108950F931F933A
:10142000CF93DF93E0911503F0911603C0811281F1
:10143000111102C0D0E101C0D0EFDC0F8D2F8878F0
:1014400001F58D2F0E9444058F70D9F40C2F029561
:101450000F708D2F0E941E09111104C0013041F040
:101460008FE012C0113079F4063069F4D05101C018
:10147000D05F8D2F0E9444058F7019F48D2F0E942C
:101480001E09112369F381EF8C0F0E94E8091111E5
:1014900002C081E101C08FEE8C0FDF91CF911F91CF
:1014A0000F910C94E809E6ECF2E080818F7D819346
:1014B00083E0E630F807C9F7089580E00E94090547
:1014C00081E080930E030C94E4081F93CF93DF9385
:1014D000182F80E00E940905C0911503D0911603D2
:1014E000812F0E944405829581708A8310930D0399
:1014F00082E080930E03DF91CF911F910C94E4085A
:101500000F931F93CF93DF93182F062FC82FD0E48C
:101510008C2F002319F00E943A0502C00E942F056B
:10152000C82F1F3F11F0882351F08C2F0E944405D3
:1015300085FD03C0D15061F702C08C2F01C08FEF31
:10154000DF91CF911F910F910895EF92FF920F932A
:101550001F93CF93DF931F92CDB7DEB7182F862F3F
:1015600069830E944405982F8F706981863039F411
:1015700081E080930B039295917090930C036983A3
:101580000E946E066981812F0E9421078091C4020A
:1015900080FBEE24E0F8F12C97012C533D4FF9012C
:1015A000EE5BFF4F9FEF90838F5F8093C40281E0DB
:1015B0000E9409050E94E408E0911503F0911603CA
:1015C00083818F3F69F50091C402017010E0812F83
:1015D0000E944405982F9F709630E1F482958170A7
:1015E000081318C0812F0E94670821E0802F8227EE
:1015F00090E08C539D4FFC01E55BFF4F8081209371
:101600000B03882319F000930C030AC082E0809337
:101610000C0306C0812F0E942F05182F8111D7CFF0
:101620000F90DF91CF911F910F91FF90EF90089550
:101630000E9409050E946E060E94E408E0911503CD
:10164000F0911603648183810C94A50AEF92FF92B6
:101650000F931F93CF93DF93082FE091C202F09175
:10166000C30214ADDDEDD10FC5AD6BE374E0CF0166
:101670000E945E1661E08091C2029091C3020E94B6
:10168000FB162091C0028091C2029091C3022430C7
:1016900061F447EF4C0F78EEE72E71E0F72E08E08B
:1016A00021E06D2F0E94511115C027E331E04EEF6C
:1016B0004C0F6D2F0E941116002361F047EF4C0F65
:1016C0006CED610F09E0282F8091C2029091C30256
:1016D0000E94AF11DF91CF911F910F91FF90EF907A
:1016E0000895AF92BF92DF92EF92FF920F931F93F4
:1016F000CF93DF931F92CDB7DEB7182F7B01D22E89
:101700006AEC70E08091C2029091C30249830E940A
:101710005E16B7018091C2029091C3020E947C16AE
:10172000082F8091C2029091C302FC01A4ACA01AC0
:10173000B12CB594A7944981442391F060E00E94B4
:10174000FB168091C2029091C30225E0200FFC019C
:1017500045AD4B50411B0DE06DEF6A0D0E948911A4
:1017600061E08091C2029091C3020E94FB168091B9
:10177000C2029091C302FC0145AD4150411B97014B
:101780006A2D0E941116DD2069F0E091C202F091ED
:10179000C30245AD4950411B09E024AD60E0CF01D3
:1017A0000E94AF110F90DF91CF911F910F91FF9089
:1017B000EF90DF90BF90AF900895EF92FF920F935C
:1017C000CF93DF93809102018E5FE091C202F0918E
:1017D000C302D5AD9D2F29E0829F90191124892F36
:1017E0008695D81B60910B0170910C0120E040E0C0
:1017F00087EF8D0F0E94710BD251B8EEEB2EB1E046
:10180000FB2E08E021E041E060E08091C20290916F
:10181000C3020E94511121E041E068E78091C202B9
:101820009091C3020E945111C0E080910201C8173B
:10183000A0F4D95021E08091BF02C81320E0EC2F22
:10184000F0E0EE0FFF1FED5FFE4F6081718140E021
:101850008D2F0E94710BCF5FE8CFDF91CF910F9159
:10186000FF90EF9008958F3479F44091BF02842F58
:1018700090E001962091020130E0821793076CF40A
:101880004F5F4093BF020895803539F48091BF02C5
:10189000882319F081508093BF0208950F931F93FE
:1018A000CF93DF93162F382F3F70409109034423C5
:1018B00011F097E0392790E0C4E095958795CA9597
:1018C000E1F7282F442311F027E02827D0910101C8
:1018D0003D9FC02D11242D9FD02D112461E08091BA
:1018E000C2029091C3020E94FB1620910101409117
:1018F000BE024F5F421B4D1B022F6C2F8091C20214
:101900009091C3020E94AF11112389F080910101CF
:1019100022E0280F4091BE02481B4D1B6FEF6C0F59
:10192000022F8091C2029091C3020E94AF11DF91F9
:10193000CF911F910F9108954F925F926F927F9276
:101940008F929F92AF92BF92CF92DF92EF92FF92CF
:101950000F931F93CF93DF9361E08091C202909128
:10196000C3020E94FB16C0E0D0E0E7E0AE2EB12C2F
:10197000FC2E8C2F8695869586956501C81AD10810
:1019800083E0CC0CDD1C8A95E1F727E0C20ED11C68
:1019900010E0CE018C539D4F3C01812F8F2583FD9C
:1019A000A1C090910903812F869586958695911106
:1019B00004C0F301E80FF11D05C0F601E81BF109B1
:1019C000EC53FD4F82818F7009F08CC04091BE02B4
:1019D0004F1999249394910E692D8091C202909190
:1019E000C3020E94D9164091BE0242504F19692D80
:1019F0008091C2029091C3020E94D9164091BE020A
:101A000044504F19692D8091C2029091C3020E94E7
:101A1000D9164091BE0246504F19692D8091C202DD
:101A20009091C3020E94D9164091BE024F1953E013
:101A3000952E910E692D8091C2029091C3020E9451
:101A4000D9164091BE0246504F19692D8091C202AD
:101A50009091C3020E94D9164091BE024F1965E0D1
:101A6000962E910E692D8091C2029091C3020E9420
:101A7000D9164091BE0246504F19692D8091C2027D
:101A80009091C3020E94D9164091BE024F1977E08F
:101A9000972E910E692D8091C2029091C3020E94EF
:101AA000D9164091BE0242504F19692D8091C20251
:101AB0009091C3020E94D9164091BE0244504F1922
:101AC000692D8091C2029091C3020E94D916409163
:101AD000BE0246504F19692D8091C2029091C302F7
:101AE0000E94D916185F103409F057CF2896C034D9
:101AF000D10509F03DCF94ECA92E92E0B92E20EE4D
:101B0000822E22E0922E880C991C1FEF34016A1855
:101B10007B08C12CD12C5C2C80910903811105C05C
:101B2000F501EC0DFD1D428004C0F301EC19FD0927
:101B30004184C42DCF7009F44FC0D0E0219703E059
:101B4000CC0FDD1F0A95E1F761E08091C202909110
:101B5000C3020E94FB1660910001809101019E0169
:101B600020533E4F79014091BE02460F189F400D11
:101B700011246150589E600D112408E021E08091ED
:101B8000C2029091C3020E94511144FA442440F8C9
:101B900080910A03841120C060E08091C20290917C
:101BA000C3020E94FB1660910001809101019E0119
:101BB00020503E4F79014091BE02460F189F400DC4
:101BC00011246150589E600D112421E08091C202C1
:101BD0009091C3020E9451113FEFC31AD30A88E0CB
:101BE000C816D10409F097CF115098E0A90EB11C86
:101BF000173F09F08BCF61E08091C2029091C30240
:101C00000E94FB1680910E01982F987819F461E0DC
:101C10000E944E0C80910D01982F987899F460E005
:101C2000DF91CF911F910F91FF90EF90DF90CF90B8
:101C3000BF90AF909F908F907F906F905F904F90EC
:101C40000C944E0CDF91CF911F910F91FF90EF906C
:101C5000DF90CF90BF90AF909F908F907F906F90CC
:101C60005F904F9008959093C3028093C202FC014D
:101C700085AD81508093BE0288E08093010181E0B0
:101C80008093000160930A030C94350687E08093EB
:101C9000DC0383E18093DD0384E18093DE0382E152
:101CA0008093E00385E18093E10388E08093DF0384
:101CB00083EB93E00E94441A83EB93E00E946F123F
:101CC00060E083EB93E00E944E1A83EB93E00E9466
:101CD000231861E083EB93E00C94330E1F93CF93B2
:101CE000DF938091C00281110EC08091C4028111E6
:101CF00002C082E001C084E080930201DF91CF91B5
:101D00001F910C94DD0B0E949C0CC091C502C53044
:101D100008F0C4E06BE374E08091C2029091C302CA
:101D20000E945E1661E08091C2029091C3020E94FF
:101D3000FB1618E0D0E0DC17A1F08091C5028C1BE7
:101D40008D0F0E94E206E091C202F091C30264ADE1
:101D500063529C01412FCF010E941116DF5F185F73
:101D6000EACF8091C002823021F481E090910E018F
:101D700005C0833029F481E090910D019F3F09F067
:101D800080E00E94260B8091C002853021F5809171
:101D90000C03E091C202F091C302882349F0813024
:101DA00071F485AD869521E041E06AE471E00DC0F3
:101DB00085AD869521E041E06FE371E006C085AD19
:101DC000869521E041E065E571E08250DF91CF9199
:101DD0001F910C94710BDF91CF911F910895CF93B8
:101DE0008093C1029091C002923009F44BC080F4FC
:101DF0009923B9F0913009F0C1C00E94530A0E94A2
:101E00005D0A60E08FEF0E94800A80930E0184C01B
:101E1000943009F49FC008F45FC0953009F4A7C05E
:101E2000ADC00E94330C8091C1028E3409F0A6C06F
:101E3000C091BF02C11105C00E943506109209036E
:101E400092C0C13031F40E943506C093090384E08A
:101E50008BC0C23099F48091C402823008F483C0F0
:101E60000E9499060E9499068091C4028250809334
:101E7000C402811178C01092BF0275C0C33009F04E
:101E80007DC071C08F3419F46091090306C080359C
:101E900059F461E080910903681B80910E010E9452
:101EA000800A80930E016AC08E3409F067C0809169
:101EB0000E018F3F19F41092C00260C00E94530AB5
:101EC00080910E010E94650A60E08FEF0E94800AF7
:101ED00080930D0183E048C08F3419F4C091090349
:101EE00006C0803599F4C1E080910903C81B6C2FAE
:101EF00080910D010E94800A80930D018F3FF1F5C2
:101F00006C2F0E94800A80930D0138C0813549F4FE
:101F10000E94530A0E945D0A8FEF80930D0182E0B8
:101F200023C08E3459F560910D0180910E010E94FD
:101F3000A50A80910B03882311F085E001C084E09D
:101F40008093C0028FEF80930E0180930D01CF919B
:101F50000C94530A82E00E94180B80910B03882393
:101F600011F085E001C081E08093C00207C08823A2
:101F700029F01092C002CF910C943506CF910895AC
:101F800083EB93E00E9440120E946E0E8091B60295
:101F9000811106C083EB93E00E9491198093B602F1
:101FA00083EB93E00E944F128111EECF8091B60235
:101FB000811106C083EB93E00E9491198093B602D1
:101FC0008091B602833519F48FE48093B602809134
:101FD000B602823519F480E58093B6028091B6028C
:101FE0000E94EF0E1092B60261E070E080E090E097
:101FF0000C944E1DCF93DF931092B2031092B10355
:10200000CFEAD3E084EC91E09983888389E198E179
:1020100090932204809321041092230410922404AC
:1020200083EB93E00E9423188CEC91E099838883E2
:1020300029E330E141EA50E160E372E083EB93E0B1
:102040000E94821226E044E06CE083EB93E0DF9193
:10205000CF910C941A112CB5982F93702C7F922B42
:102060009CBD9DB582FB882780F99E7F982B9DBDE6
:1020700008950F931F93CF93DF93EC01262F642FC6
:102080002D3229F150F4283269F02932D9F570E067
:1020900080E090E00E944E1D44C084EB820F8230AD
:1020A00000F130C000E010E0FE01E00FF11F838D71
:1020B0008F3F39F00E3010F461E001C062E00E9401
:1020C000261E0F5F1F4F0431110571F72AC04330E0
:1020D00018F485E090E002C082E090E00E94881D44
:1020E00020C02F73C20FD11D411107C061E08B8D3D
:1020F0000E94261E60E08B8D12C062E08B8D0E94D4
:10210000261E0FC02034B8F02F7330E0FE01E20F1E
:10211000F31F838D8F3F29F02E30310524F40E9468
:102120005F1E81E009C00E94951E21E0892B09F401
:1021300020E02E8BF6CF80E0DF91CF911F910F91A1
:102140000895CF93DF93EC01683199F138F464314D
:10215000D1F0673109F06AC0F9010FC0693109F4A3
:1021600051C0603209F062C06AE40E94581A1FC070
:102170000DB407FEFDCF8EB541504423C1F08191CF
:102180008EBD0000F5CFE881F981418169E40E94AC
:10219000581A61E08BE00E94261E61E08DE00E94EB
:1021A000261EE881F98160858DE00E945F1E81E036
:1021B0003EC00E94A61AE881F9818781863410F416
:1021C00084E005C08C3810F480E001C085E00E94F6
:1021D0002B108CB5837F8CBD8CB58F7D8CBDE88139
:1021E000F981408169E4CE010E94581AA881B98121
:1021F000EA85FB8520E030E012964C916CE2CE013E
:102200000995D5CFA881B981EA85FB8520E030E02A
:1022100013964C916CE20995E881F981418169E45A
:10222000CE010E94581A0E94DC1AC1CF80E0DF91D3
:10223000CF910895FC0164A345A326A30895BF92FE
:10224000CF92DF92EF92FF920F931F93CF93DF9382
:102250007C01D62EB42EC22EE801C60E01E0040F7A
:102260002C2D0E941317882391F010E8DC1479F0CC
:102270008881812339F000E021E04B2D6D2DC701CD
:102280000E94CB16D394169589F72196EECFDF9155
:10229000CF911F910F91FF90EF90DF90CF90BF9063
:1022A00008958F929F92AF92BF92CF92DF92EF925A
:1022B000FF920F931F93CF93DF93EC01962EB42ED2
:1022C000C22EA02E822E880C880C880CA40E282DDD
:1022D000260F0A2D0E941317882371F0D12CBA14EF
:1022E00059F08701282D4B2D692DCE010E941F1119
:1022F000EC0CFD1CB394F3CFDF91CF911F910F91A4
:10230000FF90EF90DF90CF90BF90AF909F908F9015
:102310000895DF92EF92FF920F931F93CF93DF9375
:10232000EC01E62E142FD22EF02EF40E262F2D0DBA
:102330000F2D0E941317882351F000E02D2D412FFF
:102340006E2DCE010E94CB161F5FF112F6CFDF91EA
:10235000CF911F910F91FF90EF90DF900895BF9262
:10236000CF92DF92EF92FF920F931F93CF93DF9361
:10237000EC01162FF42ED22EE02EC42EC00EB62E57
:10238000B20E0C2D2B2D0E9413178823E9F000E0CC
:102390002D2D4F2D612FCE010E94CB1601E02E2D49
:1023A0004F2D612FCE010E94CB166FEF6B0D2E2D9E
:1023B0004F2DCE010E94CB164FEF4C0D00E02D2D7E
:1023C000612FCE010E94CB16DF91CF911F910F910B
:1023D000FF90EF90DF90CF90BF900895FC01A08117
:1023E000B1811C964C9185A9489FA001112483E0DE
:1023F000440F551F8A95E1F760E070E083A994A926
:102400000C94BC24BF92CF92DF92EF92FF920F9375
:102410001F93CF93DF93EC01CDA8DEA8E881F9816B
:10242000B584E12CF12CE881F98124850BA91CA944
:1024300088E0289FA00111244E9DC0014F9D900D62
:102440005E9D900D1124080F191F4D2D4E0D60E05B
:10245000CE010E94171A81E08E0D8C1538F48FEF93
:10246000E81AF80A8D2D8E0D8B15E8F2DF91CF91C9
:102470001F910F91FF90EF90DF90CF90BF90089544
:10248000CF93DF93EC010E94EE111EAAE9A9FAA9ED
:102490000190F081E02DCE01DF91CF9109941F933F
:1024A000CF93DF93EC010E9402121EA98DA9180F91
:1024B000E881F9818585181768F4CE010E94EE1134
:1024C0001EABE9A9FAA90190F081E02DCE01099592
:1024D00081E001C080E0DF91CF911F910895CF93FB
:1024E000DF93EC010E944012CE010E944F12811135
:1024F000FBCFDF91CF91089521E0FC01208385E29D
:1025000094E00895CF92DF92EF92FF920F931F9382
:10251000CF93DF931F92CDB7DEB77C016B018901AA
:102520009A0148EC58E167E879E10E94811ACE01EE
:1025300001960E947C1286012AE337E14981BC01A1
:10254000C7010E94FA170F90DF91CF911F910F9151
:10255000FF90EF90DF90CF900895FC01E60FF11D02
:10256000849190E0982F88273196E4918E0F911DE9
:102570000895213039F020F0223031F4841B089581
:10258000840F0895860F0895861B0895213039F031
:1025900020F0223031F4861B0895860F0895841BA5
:1025A0000895840F089580E008950F931F93CF93AB
:1025B000DF93EC018B01FB01849188833196E491D8
:1025C000E983FB013296E491EA83FB013396E491BF
:1025D000EB83FB013496E491EC83FB013596E491A7
:1025E000ED83FB013696E491EE83FB013796E4918F
:1025F000EF83FB013896E491E887FB013996E4917B
:10260000E987FB013A96E491EA87FB013B96E49166
:10261000EB87FB013C96E491EC87FB013D96E4914E
:10262000ED87FB013E96E491EE87FB013F96E49136
:10263000EF87FB017096E491E88B61E1C8010E948D
:10264000AD129A8B898B63E1C8010E94AD129C8BFD
:102650008B8B65E1C8010E94AD129E8B8D8BDF9143
:10266000CF911F910F910895DC0118965C911897F6
:10267000ED91FC911197849190E0052E02C0959503
:1026800087950A94E2F7462F450F483070F031964F
:102690001196FC93EE93249198E0951B092E01C0AE
:1026A000220F0A94EAF7822B485018964C9321E0A7
:1026B00030E0062E01C0220F0A94EAF7215082234F
:1026C0000895CF93C62F0E943413C15021E030E00B
:1026D00001C0220FCA95EAF7821BCF9108955F923D
:1026E0006F927F928F929F92AF92BF92CF92DF9222
:1026F000EF92FF920F931F93CF93DF937C01162FDE
:10270000642EEC01CA5BDF4F9C80AD806C018DE6CE
:10271000C80ED11CBE80B9188B2C1B1508F4812E55
:102720005B800C85202F4A2D692D8A810E94C6125C
:10273000782E202F4A2D692D852D0E94B912482F01
:10274000662011F09A8504C09985911108C09B8577
:10275000F6019083282D672DC7010E94CB161B150B
:1027600020F01B19A394912CD5CF190D1C83AD8299
:10277000DF91CF911F910F91FF90EF90DF90CF905D
:10278000BF90AF909F908F907F906F905F900895D3
:102790006F927F928F929F92AF92BF92CF92DF9271
:1027A000EF92FF920F931F93CF93DF937C01EC0185
:1027B000CA5BDF4F798368831886FC01E95AFF4FB3
:1027C0006081CE010E9434138E83F701E85AFF4FD7
:1027D0006081CE010E943413982E8F8367018DE6AD
:1027E000C80ED11CF60190819A8781E089278B87DA
:1027F00074976081CE010E946113782EF701E65A2A
:10280000FF4F6081CE010E946113A82EF701E55AA7
:10281000FF4F6081CE010E946113882EBE801B1481
:102820000CF061C00C85A90CA194202F4A2D672DB6
:102830008A810E94C612182F8A83202F4A2D672D65
:102840008B810E94B912482F8B83013079F048F0B8
:10285000023089F00330A1F4212F290D082F4B19E4
:1028600011C0212F2B0D082F090D0CC0082F0B0DA7
:10287000212F191907C0082F4919212F1B1902C030
:10288000082F212F612FC7010E941317882359F1A8
:102890001C821D8287010B5A1F4F5701F6E5AF0EB0
:1028A000B11CF8016081CE010E943413682EF5013D
:1028B0006081CE010E943413782E40E0662DC7015E
:1028C0000E946F1341E0672DC7010E946F1361E002
:1028D000CE010E9434138111F0CF8D8189150CF344
:1028E0008A85F6018083882DDF91CF911F910F910A
:1028F000FF90EF90DF90CF90BF90AF909F908F9020
:102900007F906F900895FC01EE5BFF4F2081318135
:10291000295E3F4F6F3F710509F010F56136710573
:1029200010F0B49606C06134710538F0FC01EC5922
:10293000FF4F80819181280F391FC9010196FC0149
:102940004491442351F1F901449150E0461757074F
:1029500011F401960895FC018491280F311DEDCFEB
:10296000FC01E859FF4F80819181820F931FFC0188
:10297000249130E0322F22273196E4912E2B21151D
:10298000310559F02617370711F403960895FC0115
:102990003296E4918E0F911DEACF80E090E0089589
:1029A0000F931F93CF93DF938C010E9483140097A2
:1029B000A9F1E801CA5BDF4F998388831886F80183
:1029C000E95AFF4F6081CE010E9434138E83F801D3
:1029D000E85AFF4F6081CE010E9434138F83F801C3
:1029E000E359FF4F90819A8781E089278B877497FD
:1029F0006081CE010E946113F801E65AFF4F6081A9
:102A0000CE010E946113F801E55AFF4F6081CE01AB
:102A1000DF91CF911F910F910C94611380E0DF91B2
:102A2000CF911F910F910895AF92BF92CF92DF92F5
:102A3000EF92FF920F931F93CF93DF9300D0CDB708
:102A4000DEB75C017C018CE4E80EF11CD7011C921E
:102A5000C50169837A830E9423186981062F7A81D0
:102A6000172FC12CD12CF80161918F01D50112963D
:102A7000ED91FC911397C5010995BC018F3FBFEF04
:102A80009B0751F08E3FEFEF9E0769F3C5010E944F
:102A9000D014C82ED80EE7CFD7018C91882311F01F
:102AA000D80EDC188D2D0F900F90DF91CF911F91D4
:102AB0000F91FF90EF90DF90CF90BF90AF9008956F
:102AC000EF92FF920F931F93CF93DF93EC01E62ECB
:102AD000F42E8901FC01EE5AFF4F80818130C9F04C
:102AE00070F0823001F1833039F5FE01EC5BFF4F6D
:102AF0000190F081E02DCE010995E80E1DC0FE0188
:102B0000EC5BFF4F0190F081E02DCE010995F80EAE
:102B100013C0FE01EC5BFF4F0190F081E02DCE0170
:102B20000995E81A09C0FE01EC5BFF4F0190F081A6
:102B3000E02DCE010995F81AFE01E85BFF4FE08217
:102B40003196F082B801CE010E948314009751F0B3
:102B5000BC01CE01DF91CF911F910F91FF90EF90BB
:102B60000C94C81380E0DF91CF911F910F91FF90DB
:102B7000EF9008958F929F92BF92CF92DF92EF9243
:102B8000FF920F931F93CF93DF9300D0CDB7DEB7A3
:102B90004C01D62EC42E29833A830E942318298102
:102BA000022F3A81132FB12C740182E5E80EF11C3B
:102BB000D8016D918D01D4011296ED91FC9113977E
:102BC000C40109959C018F3FBFEF9B07D9F08E3F51
:102BD000EFEF9E0769F34C2D6D2DC4010E94601527
:102BE000D7019C91913049F030F0923041F0933010
:102BF00039F4C81A05C0D80E03C0C80E01C0D81ACF
:102C0000B80ED6CF8B2D0F900F90DF91CF911F91E3
:102C10000F91FF90EF90DF90CF90BF909F908F909B
:102C20000895E9E1F8E1DC011396FC93EE93129725
:102C30000C94BA15CF93DF93FC01EE5BFF4F20811C
:102C40003181232BC1F17E962081DC01A559BF4F34
:102C50002C93319650813B965083EC01C659DF4F3F
:102C60003881332341F1313069F4289738812317B3
:102C70000CF43C93DC01AD59BF4F8C918517DCF40B
:102C8000808319C0EC01C35ADF4F688122964881C6
:102C9000332727FD3095842F992787FD9095860F40
:102CA000911D67FD9A952817390714F4640F6C93EA
:102CB00045170CF44083DF91CF910895CF93DF93B4
:102CC000EC01FC01EE5BFF4F808191818617970735
:102CD00081F071836083CE018D5A9F4F0E94D5127F
:102CE000CE010E941A16CC5BDF4F83ED92E19983EF
:102CF0008883DF91CF91089529E138E1FC01338386
:102D000022830C9414150F93702F023019F4621B58
:102D10006F5F04C0033011F44F5F421BDC01D69695
:102D20003C91B8EF3B9F400D1124FC0130AD57A9F9
:102D3000072F017070FD14C0431758F5260F261792
:102D400030F4651718F42FEF250F03C060E0651706
:102D500000F52223F1F0521708F4252F261B13C08B
:102D60006517B8F4240F241730F4431718F42FEF25
:102D7000230F03C040E0431760F4222351F03217C1
:102D800008F4232F241BDC019F96ED91FC91D09732
:102D900009950F9108950F93222349F0DC01D196F4
:102DA000ED91FC91D2970280F381E02D09950F916E
:102DB00008950F93FC01E05CFF4F20814217C8F09B
:102DC000319620812417A8F0DC01DE962C91DE9745
:102DD000621778F0DF962C91DF97261750F0D19686
:102DE000ED91FC91D2970280F381E02D00E021E08B
:102DF00009950F910895FC01E359FF4F611102C03D
:102E00001082089581E080830895461730F4821778
:102E100040F081E0241730F002C08217D0F380E048
:102E2000089581E00895FF920F931F93CF93DF934E
:102E3000EC01162FF22E202FDC01AF5BBF4FFC01FF
:102E4000E05CFF4F6C9180810E940517882359F048
:102E50002F2D412F6FAD8EADDF91CF911F910F912F
:102E6000FF900C94051780E0DF91CF911F910F9197
:102E7000FF900895CF92DF92EF92FF920F93CF933E
:102E8000DF93DC01ED91FC911197C48570E0D0E0F7
:102E9000CE0133E0880F991F3A95E1F7681779075B
:102EA00014F00E94B7248585E42FF0E038E0839F7A
:102EB000C0011124E817F907A4F7477081E090E0FA
:102EC000042E01C0880F0A94EAF7382F6F0158EFDB
:102ED000C522D396ED91FC91D497CC9E7001CD9EE6
:102EE000F00CDC9EF00C1124EE0DFF1DE60FF71F19
:102EF000ED01C359DF4F011122C048812E0F442339
:102F000031F08081832B81932E13FBCF21C08095DC
:102F10009081982391932E13FBCF1AC0832F809515
:102F2000892380834F5F4770215041110FC0DC9689
:102F30008C91DC97E80FF11D31E0222349F0888164
:102F40009081882359F3932B9083ECCF330FF5CFE7
:102F5000DF91CF910F91FF90EF90DF90CF90089588
:102F6000FC0145A9842F880F880F880F80AFA081AE
:102F7000B1811C968C911C97880F880F880F87ABA6
:102F800066A9562F550F550F550F51AF1D967C91C1
:102F90001D97862F90E0840F911D272F30E0281772
:102FA000390714F4472F461B52AF88E0489F500D55
:102FB000112453AF50968C91509784AF52968C91B8
:102FC00085AF0895CF93DF93EC010E94B0171EAE3A
:102FD0008FA98FAFFE01E05CFF4F8AAD80833196F1
:102FE0008BAD8083DF91CF9108950F930E9483165C
:102FF0000F9108950F931F93CF93DF93EC0138AB9C
:103000002FA77CAB6BAB4DAB1EAAFC01E359FF4F66
:1030100081E080831AAB09ABD801ED91FC91CE0120
:103020000995CE5ADF4F1882DF91CF911F910F91F2
:103030000895662329F06A3019F0862F90E00895EC
:103040008FEF9FEF0895FC01158A0895462FDC014C
:103050001896ED91FC91199720E030E060E2099418
:103060009A01DC011896ED91FC911997462F67E1C2
:103070000994CF93DF931F92CDB7DEB76983AE017A
:103080004F5F5F4F61E00E9430180F90DF91CF914A
:103090000895462FDC011696ED91FC91179720E0DC
:1030A00030E065E10994462FDC011696ED91FC9124
:1030B000179720E030E066E109949A01DC0116964A
:1030C000ED91FC911797462F67E10994DC01169664
:1030D000ED91FC91179720E030E040E068E1099421
:1030E000DC011696ED91FC91179720E030E040E06E
:1030F00069E10994EF92FF920F931F93CF93DF93AF
:103100001F92CDB7DEB77C018B01D8016C9167317E
:10311000E1F078F46531A0F1F80141814983D701EC
:103120001696ED91FC91179720E030E0C7010995C4
:1031300024C06A31A8F06E3F19F5F8014181498336
:1031400069E2C7010E94581A18C0F8018181898379
:10315000AE014F5F5F4F61E0C7010E945D180DC077
:103160000F5F1F4FD7011696ED91FC91179720E046
:1031700030E040E0C7010995C8CF0E5F1F4FC5CFB3
:103180000F90DF91CF911F910F91FF90EF900895D5
:10319000EF92FF920F931F93CF93DF9300D0CDB7A1
:1031A000DEB77C01162F042F663159F028F4643104
:1031B000C9F0653131F027C0673169F06A3118F51F
:1031C00011C060E0C7010E942618602FC7010E944D
:1031D000391881E019C061E029833A830E942618DA
:1031E0003A812981D7011896ED91FC911997402FCA
:1031F000612FC7010F900F90DF91CF911F910F9119
:10320000FF90EF90099480E00F900F90DF91CF91A5
:103210001F910F91FF90EF900895EF92FF920F93FF
:103220001F93CF93DF93EC01F42E89016D30C1F130
:1032300028F46A3029F16B3041F161C06E3009F435
:1032400042C06F3009F05BC00E946618F8018381AC
:10325000E888F8E08F9FE00C11246E2D62956F7066
:103260006061CE010E9449186E2D6F70CE010E94E0
:103270004918F8016481606BCE010E94491832C080
:103280000E94DF1960E672E007C0411103C06BE5E0
:1032900072E002C066E572E0CE010E947A1820C09A
:1032A000411108C06FE472E00E947A18E881F98148
:1032B000868507C068E472E00E947A18E881F98187
:1032C0008785888B0DC00E94661861E8CE010E9438
:1032D00049186F2DCE010E945318CE010E9470181C
:1032E00081E00EC0F801408151816281660F660F56
:1032F000660FCE010E945D18FA94A1F7EECF80E030
:10330000DF91CF911F910F91FF90EF900895693059
:1033100011F00C940D1964E372E00E94D71981E05A
:103320000895FF920F931F93CF93DF93EC010EE468
:103330001FEFFF24F394FE8A40E0602FCE010E942D
:10334000581A8E898170110F182B0F5F043599F769
:10335000898D803151F0803279F081111FC08F89C1
:103360008117F1F0188F81E11AC0888D811711F053
:10337000198E16C080E213C08F89811311C0198E77
:10338000288D86E091E021278150392F322321F4C6
:10339000990F8111F9CF86E0825B03C08150898F3C
:1033A00080E0DF91CF911F910F91FF900895FC0174
:1033B00071836083FB012685FC01208B0895CF93E8
:1033C000DF93EC01EA85FB8520E030E040E068E235
:1033D0000995EE81FF8120E030E040E064E1CE011C
:1033E000099541E06BE4CE010E94581AE881F98109
:1033F000448169E2CE010E94581A40E06BE4CE019C
:103400000E94581AE881F981448169E2CE010E9444
:10341000581A41E06BE4CE010E94581AE881F98104
:10342000458169E2CE01DF91CF910C94581A0F9338
:103430001F93CF93DF9300D000D01F92CDB7DEB79C
:103440006C834D832B831A830983DC011496ED91E1
:10345000FC9115979E012F5F3F4F41E06FE009956A
:103460000F900F900F900F900F90DF91CF911F91C1
:103470000F910895DC011496ED91FC91159720E0D1
:1034800030E040E069E00994DC011496ED91FC9194
:10349000159720E030E040E06AE00994462FDC0117
:1034A0001496ED91FC91159720E030E06BE00994C3
:1034B000DC011A96ED91FC911B9720E030E0099415
:1034C00080E00895FC011182108280E69AE19583E4
:1034D0008483978386839187808793878287118AE5
:1034E000148A8FEF828B878B80E090E02FEFDF01D3
:1034F000A80FB91F5B962C93019684319105B9F7FB
:103500000895AF92BF92CF92DF92EF92FF920F9306
:103510001F93CF93DF93EC017B016A0159010E9455
:10352000621AFD82EC82DF82CE82B986A8861B8772
:103530000A87CE01DF91CF911F910F91FF90EF90FD
:10354000DF90CF90BF90AF900C943A1ACF93CFB743
:10355000F8948091A604811127C0EFECF7E08491E4
:10356000E0EBF7E09491E82FF0E0EE0FFF1FE7505B
:10357000F84FA591B4918C91892321F461E081E108
:103580000E945F1E61E081E10E94261E8CB5806171
:103590008CBD8CB580648CBD61E08FE00E94261EDE
:1035A00061E080E10E94261E8091A6048F5F8093D7
:1035B000A604CFBFCF9108959FB7F8948091A60439
:1035C000882319F081508093A6048091A60481116C
:1035D00005C08CB58F7B8CBD1092A5049FBF08954C
:1035E0008091D60490E02091D704821B9109089520
:1035F0002091D7048091D604281750F4E22FF0E0F0
:10360000E852FB4F808190E02F5F2093D70408950C
:103610008FEF9FEF0895E091D7048091D604E817CB
:1036200030F4F0E0E852FB4F808190E008958FEF96
:103630009FEF08950895CF92DF92EF92FF920F933C
:103640001F93CF93DF937C01CB018A012091B304B8
:10365000222389F0EB016B01C40ED51ECC15DD05CC
:1036600069F06991D701ED91FC910190F081E02D15
:10367000C7010995F3CF642F0E948B1BC801DF910E
:10368000CF911F910F91FF90EF90DF90CF90089511
:10369000CF93DF931F92CDB7DEB769832091B30438
:1036A0002223D1F02091B404203240F021E030E018
:1036B000FC013383228380E090E015C08091B50443
:1036C000E82FF0E0EA54FB4F998190838F5F80935D
:1036D000B5048093B40405C061E0CE0101960E9458
:1036E0008B1B81E090E00F90DF91CF910895FC015A
:1036F0001382128248EE53E060E070E04483558309
:103700006683778389E992E091838083089587EACD
:1037100094E00C94771B613298F420916505243075
:1037200089F460931A05FC018CE195E0DC012A2FF5
:10373000281B261718F421912D93F9CF80E00895C6
:1037400081E0089582E0089585ED8093BC0080912A
:10375000BC0084FDFCCF10926505089585EC809334
:10376000BC001092650508951F920F920FB60F923C
:1037700011242F933F934F935F936F937F938F9376
:103780009F93AF93BF93EF93FF938091B900887F8E
:10379000803609F49EC078F5883209F45DC090F453
:1037A000803109F456C038F4882309F4F5C0883014
:1037B00009F44FC0F5C0883109F44EC0803209F4D5
:1037C0005FC0EEC0803409F46AC058F4803309F455
:1037D00057C0883309F0E4C08093F8040E94AE1B00
:1037E000DFC0803509F44FC0883509F45DC08834E6
:1037F00009F0D6C0D3C0883909F4C4C0A8F488370A
:1038000009F467C038F4883609F463C0803709F4D6
:1038100060C0C6C0883809F4B5C0803909F45FC0FB
:10382000803809F0BDC05BC0803B09F483C038F428
:10383000803A09F466C0883A09F47CC0B1C0803C83
:1038400009F4A4C0883C09F4A1C0883B09F487C0EE
:10385000A7C08091640510C090913D0580913C0502
:10386000981770F5E0913D0581E08E0F80933D053E
:10387000F0E0E25CFA4F80818093BB0085EC83C06E
:103880008093F8048BC0E0913D0581E08E0F80931A
:103890003D058091BB00F0E0E25CFA4F808390919F
:1038A0003D0580913C056BC0E0913D0581E08E0FA8
:1038B00080933D058091BB00F0E0E25CFA4F80838D
:1038C0008091630581116AC081E08093620584EA7A
:1038D0005EC083E0809365051092F904CFCF80919C
:1038E000F904803208F04EC0E091F90481E08E0FB7
:1038F0008093F9048091BB00F0E0E650FB4F808399
:10390000BDCF0E94AE1B8091F904803230F4E0916B
:10391000F904F0E0E650FB4F10826091F90470E08A
:10392000E0915E05F0915F058AEF94E009951092B1
:10393000F90436C084E08093650510921B0510924F
:103940001A05E0916005F0916105099580911A05CD
:10395000811105C081E080931A0510921C05E09149
:103960001B0581E08E0F80931B05F0E0E45EFA4FAB
:1039700080818093BB0090911B0580911A05981758
:1039800008F47CCF85E88093BC000AC085EC809366
:10399000BC001092650504C01092F8040E94A41B9C
:1039A000FF91EF91BF91AF919F918F917F916F9117
:1039B0005F914F913F912F910F900FBE0F901F90ED
:1039C00018951F920F920FB60F9211242F933F93C9
:1039D0008F939F93AF93BF938091670590916805F4
:1039E000A0916905B0916A053091660523E0230F27
:1039F0002D3720F40196A11DB11D05C026E8230F27
:103A00000296A11DB11D20936605809367059093D2
:103A10006805A0936905B0936A0580916B05909144
:103A20006C05A0916D05B0916E050196A11DB11DAB
:103A300080936B0590936C05A0936D05B0936E0514
:103A4000BF91AF919F918F913F912F910F900FBE9A
:103A50000F901F9018953FB7F89480916B05909147
:103A60006C05A0916D05B0916E0526B5A89B05C0AB
:103A70002F3F19F00196A11DB11D3FBF6627782F7A
:103A8000892F9A2F620F711D811D911D42E0660FD3
:103A9000771F881F991F4A95D1F708958F929F929B
:103AA000AF92BF92CF92DF92EF92FF926B017C01B7
:103AB0000E942B1D4B015C01C114D104E104F104EF
:103AC000F1F00E94D21E0E942B1D681979098A0903
:103AD0009B09683E73408105910570F321E0C21A8D
:103AE000D108E108F10888EE880E83E0981EA11C39
:103AF000B11CC114D104E104F10429F7DDCFFF901A
:103B0000EF90DF90CF90BF90AF909F908F900895EF
:103B10008230910538F0880F991F880F991F0597FB
:103B20000197F1F70895789484B5826084BD84B5D7
:103B3000816084BD85B5826085BD85B5816085BDA8
:103B4000EEE6F0E0808181608083E1E8F0E01082C1
:103B5000808182608083808181608083E0E8F0E002
:103B6000808181608083E1E9F0E0808182608083F0
:103B7000808181608083E0E9F0E0808181608083E2
:103B8000E1ECF0E0808184608083808182608083CA
:103B9000808181608083E3ECF0E0808181608083BC
:103BA000E0ECF0E0808182608083E2ECF0E08081F4
:103BB00081608083EAE7F0E0808184608083808197
:103BC000826080838081816080838081806880833F
:103BD000089590E0FC013197EF30F105B0F5EA5A15
:103BE000FF4F0C94B124809180008F7703C08091A7
:103BF00080008F7D80938000089580918000877F72
:103C0000F9CF84B58F7702C084B58F7D84BD0895C8
:103C1000809190008F7707C0809190008F7D03C0C6
:103C200080919000877F8093900008958091C000DC
:103C30008F7703C08091C0008F7D8093C00008956E
:103C40008091C200877F8093C2000895CF93DF9355
:103C500090E0FC01E156F84F2491FC01E254F84F4A
:103C60008491882349F190E0880F991FFC01E75067
:103C7000F84FA591B4918551984FFC01C591D4910D
:103C80009FB7611108C0F8948C91209582238C9382
:103C9000888182230AC0623051F4F8948C91322FCB
:103CA000309583238C938881822B888304C0F89479
:103CB0008C91822B8C939FBFDF91CF9108950F93AE
:103CC0001F93CF93DF931F92CDB7DEB7282F30E03D
:103CD000F901E058F84F8491F901E156F84F149139
:103CE000F901E254F84F04910023C9F0882321F030
:103CF00069830E94E91D6981E02FF0E0EE0FFF1F4C
:103D0000E551F84FA591B4919FB7F8948C9161114A
:103D100003C01095812301C0812B8C939FBF0F900E
:103D2000DF91CF911F910F910895CF93DF93282FAB
:103D300030E0F901E058F84F8491F901E156F84F6D
:103D4000D491F901E254F84FC491CC2391F0811140
:103D50000E94E91DEC2FF0E0EE0FFF1FE352F84F39
:103D6000A591B4912C912D2381E090E021F480E085
:103D700002C080E090E0DF91CF91089508950E9405
:103D8000931D0E94BE1E8FE695E00E9405230E94AF
:103D9000460EC0E0D0E00E94C00F2097E1F30E94E1
:103DA0000000F9CF0895615030F02091F100FC013E
:103DB00020830196F8CF289884E6809378050895AB
:103DC00040917305509174052091710530917205F1
:103DD00042175307B4F49091E8009570E1F3909185
:103DE000E80092FD19C08093F100809173059091D5
:103DF000740501968F739927892B19F48EEF8093A0
:103E0000E800809173059091740501969093740574
:103E10008093730581E0089580E00895CF92DF924A
:103E2000EF92FF920F931F93CF93DF931F92CDB723
:103E3000DEB7082F162FF42E862F880F8E5F9983FA
:103E40000E94E01E83E00E94E01EE02EC02E9981B9
:103E5000D92E8C2D8E19811798F4F601F7FE02C029
:103E6000849101C080810E94E01E082F80E00E94A2
:103E7000E01E8023FFEFCF1ADF0A8111EACF01C0D5
:103E800081E00F90DF91CF911F910F91FF90EF9004
:103E9000DF90CF9008958091D70081608093D70004
:103EA00080EA8093D80089B5806189BD89B5826038
:103EB00089BD09B400FEFDCF61E070E080E090E0D4
:103EC0000E944E1D8091D8008F7C80618093D80025
:103ED0008091E000807F8093E0000895CF93DF938E
:103EE0001F92CDB7DEB71982CE0101960E947523CD
:103EF0000E949D24BE016F5F7F4F0E94162489811E
:103F00000F90DF91CF9108952FB7FC012083F89493
:103F100067706093E9000895CF93DF931F92CDB748
:103F2000DEB7682FCE0101960E94841F8091F200B7
:103F300099819FBF0F90DF91CF910895FF920F93CA
:103F40001F93CF93DF9300D0CDB7DEB7F62E8A0153
:103F500090917705992311F057FF03C08FEF9FEFE2
:103F60002BC0682FCE0101967A830E94841F809116
:103F7000F20090E0A8017A81801791070CF4AC015F
:103F8000EF2DF72FF40E84E6FE1639F02898809373
:103F900078059091F1009193F7CF4115510521F0EB
:103FA0008091F200882321F089818FBFCA0104C06B
:103FB0008BE68093E800F8CF0F900F90DF91CF91C0
:103FC0001F910F91FF900895CF93DF931F92CDB76C
:103FD000DEB741E050E0BE016F5F7F4F0E949E1F41
:103FE000019719F4898190E002C08FEF9FEF0F9045
:103FF000DF91CF910895CF93DF931F92CDB7DEB7B6
:10400000682FCE0101960E94841F9091E800892FAD
:10401000807295FF04C09091F20080E4891B998121
:104020009FBF0F90DF91CF9108956F927F928F92F3
:104030009F92AF92BF92CF92DF92EF92FF920F9337
:104040001F93CF93DF931F92CDB7DEB7782E7B01FE
:10405000C42EB52E80917705882369F0042F152F83
:104060008AEFD82E872D8072982E9AE3A92E872D5D
:104070008074882E11C08FEF9FEF57C0872D0E944C
:10408000FB1F682E81110CC0DA94A9F361E070E087
:1040900080E090E00E944E1D0115110579F73BC0AC
:1040A000282F30E0021713070CF4602E672DCE0185
:1040B00001960E94841F8091E80085FF29C0262D6B
:1040C00030E0021B130B992039F06A948FEF6816C9
:1040D000B1F01092F100F9CFF701862D77FE07C0FD
:1040E000815058F094919093F1003196F9CF81501E
:1040F00020F091919093F100FACFE20EF31E80919F
:10410000E80085FF0FC00115110511F481100AC0E8
:1041100089818FBFC1CF5D9884E6809379058C2D0E
:104120009B2D03C0A092E800F3CF0F90DF91CF91B9
:104130001F910F91FF90EF90DF90CF90BF90AF90C5
:104140009F908F907F906F9008951092E900109249
:10415000740510927305909372058093710508950C
:10416000CF92DF92FF920F931F93CF93DF9300D0F4
:10417000CDB7DEB7F82E8A016B0101151105B1F03C
:10418000F601F7FE02C0849101C0808149835A8301
:104190000E94E01E01501109FFEFCF1ADF0A49818A
:1041A0005A818111EACF8FEF9FEF01C0CA010F90B2
:1041B0000F90DF91CF911F910F91FF90DF90CF90E3
:1041C0000895BF92CF92DF92EF92FF920F931F93C9
:1041D000CF93DF936C018B01EB013BEFB32E209764
:1041E000C1F07E01C134D1051CF020E4E22EF12C97
:1041F0008091E80082FFFCCFC8018C1B9D0B6E2DC7
:104200008C0D9D1D0E94D31EB092E800CE19DF09CF
:10421000E6CFC801DF91CF911F910F91FF90EF90F2
:10422000DF90CF90BF9008951F920F920FB60F921C
:104230001124DF92EF92FF920F931F932F933F93DE
:104240004F935F936F937F938F939F93AF93BF939E
:10425000EF93FF93CF93DF93CDB7DEB76C97DEBFBD
:10426000CDBF1092E9008091E80083FF23C168E090
:10427000CE0145960E94D31E82EF8093E8003D89CF
:1042800037FF05C08091E80080FFFCCF03C08EEFB0
:104290008093E800832F807609F0F0C02E894F8943
:1042A000D88C21110CC0303829F480917605809388
:1042B000F10002C01092F1001092F100F4C0842FBE
:1042C00090E09D29213049F43111EDC0019709F0AA
:1042D000EAC0809176058D7F0AC0233059F43111F0
:1042E000E2C0019709F0DFC080917605826080937B
:1042F0007605D9C0253041F48091E80080FFFCCFDD
:1043000040684093E300CFC0263009F08DC0EB8CAD
:10431000FC8C22E0D2122CC080E090E00E94A5200C
:104320000E946E1F99E08E010F5F1F4FF801292F29
:1043300011922A95E9F79983DA8291E09E8390EAB7
:1043400098879AEF99872091730530917405275FBC
:104350003F4F3C832B838D83C7010E94A52049E0FA
:1043600050E0B80180E00E94B0200E946E1F9BC008
:10437000C7010E94A5200E949D24BE016B5E7F4F55
:104380000E943F24009719F00CF08DC090C081E08E
:10439000D8120EC08B8D9C8D089719F481E0809304
:1043A00070058091700581112FC069E178E031C0FE
:1043B000E3E0DE127CC08F89882349F1823029F442
:1043C00040E860E187E398E01CC0813029F440E8D0
:1043D0006BE08BE298E015C0833009F068C00E9462
:1043E0009D248E010F5F1F4FB8010E945E24F801CB
:1043F00001900020E9F73197E01BF10B40E06E2FB0
:10440000C8010E940E1F4DC067E078E002C068E45A
:1044100078E06115710509F44AC0FB01449150E050
:1044200080E80E94B0203FC0273009F440C0283007
:1044300021F481E08093F10036C02930A1F533707A
:10444000B1F5E5E2F1E081E021E036E390819923E6
:1044500061F08093E9002093EB0091919093EC0040
:104460003093ED008F5F873089F78EE78093EA0005
:104470001092EA008F898093770515C08B8D9C8DF3
:104480000E94A520898D811105C0CE0145960E940C
:10449000802307C00E949D24BE016B5E7F4F0E9457
:1044A0007D24882321F08EEF8093E80003C081E211
:1044B0008093EB006C960FB6F894DEBF0FBECDBFB5
:1044C000DF91CF91FF91EF91BF91AF919F918F912C
:1044D0007F916F915F914F913F912F911F910F911C
:1044E000FF90EF90DF900F900FBE0F901F901895E8
:1044F0008093E9008091F200882319F08AE3809389
:10450000E80008951F920F920FB60F9211242F9377
:104510003F934F935F936F937F938F939F93AF934B
:10452000BF93CF93EF93FF93C091E1008091E1009F
:10453000837F8093E1008093E100C3FF0FC010925E
:10454000E90081E08093EB001092EC0082E380931D
:10455000ED001092770588E08093F000C2FF19C04B
:1045600083E00E94782280917905882339F0809138
:104570007905815080937905882389F180917805A8
:10458000882339F0809178058150809378058823BD
:1045900041F1C4FF10C08091E2008E7E8160809363
:1045A000E2008091E1008F7E8093E10080917505AB
:1045B0008E7E806111C0C0FF16C08091E2008E7EA9
:1045C00080618093E2008091E1008E7E8093E10023
:1045D000809175058E7E81608093750504C05D9A1B
:1045E000CDCF289AD6CFFF91EF91CF91BF91AF91C8
:1045F0009F918F917F916F915F914F913F912F91FB
:104600000F900FBE0F901F90189510927705109283
:104610007605109275050E944B1FE1EEF0E0808157
:104620008E7E80838DE08093E200559A209A0895D3
:10463000CF93DF931F92CDB7DEB76983DC01ED9195
:10464000FC910280F381E02D41E050E0BE016F5FFC
:104650007F4F09950F90DF91CF910895CF93DF930E
:10466000EC018C859D8597FF05C082E00E94E41FC8
:104670009D878C878C859D85DF91CF91089583E000
:104680000C947822FC018485958597FD06C082E014
:104690000E948C1F90E00196089582E00E948C1F7A
:1046A00090E00895FC018485958597FD05C02FEF66
:1046B0003FEF35872487089582E00C94E41FCF9361
:1046C000DF93EC0180913601882331F083E00E9472
:1046D00015201816190634F081E090E09B838A8338
:1046E00080E090E0DF91CF910895FC0120812E5F62
:1046F000208342E450E06CE478E080E80C94B02041
:10470000FC0121818081813A59F4213209F05CC099
:1047100047E050E06FE271E080E00E94B02067C0A7
:10472000813209F051C0233289F4838190E0982FBF
:1047300088273281832BA0E0B0E080932B019093F7
:104740002C01A0932D01B0932E010FC0203239F41B
:1047500067E070E08FE291E00E94E1200AC022321F
:1047600021F482818093360104C02D7F203209F02C
:104770003EC080912F0190913001A0913101B09104
:104780003201803B9440A105B10501F580913601CD
:1047900080FD1CC080910008909101089093FF0A51
:1047A0008093FE0A87E797E79093010880930008BB
:1047B0002BE088E190E00FB6F894A8958093600014
:1047C0000FBE2093600013C080E0089588E10FB60B
:1047D000F89480936000109260000FBEA8958091BD
:1047E000FE0A9091FF0A909301088093000881E0EF
:1047F000089510927D0510927C0588EE93E0A0E06C
:10480000B0E080937E0590937F05A0938005B093E0
:10481000810589EA92E090937B0580937A058FEF7A
:104820009FEF90938705809386050895EF92FF92FE
:104830000F931F93CF93DF937B01FC01C281D38140
:1048400000E010E0209781F0E881F9810280F38197
:10485000E02DB701CE01099597FD08C0080F191F7B
:104860000884D985C02DEECFC80102C08FEF9FEF1D
:10487000DF91CF911F910F91FF90EF9008950F93CB
:104880001F93CF93DF938B01FC01C281D3812097CB
:1048900071F0E881F9810480F581E02DB801CE0145
:1048A0000995009731F40884D985C02DF0CF80E0B8
:1048B00090E0DF91CF911F910F9108950F931F9377
:1048C000CF93DF938B01FC01C281D381209771F0DC
:1048D000E881F9810680F781E02DB801CE010995C4
:1048E000080F111D0884D985C02DF0CFF801108262
:1048F000DF91CF911F910F9108950F931F93CF9345
:10490000DF938B01FC01C281D381209771F0E88194
:10491000F9810190F081E02DB801CE010995811156
:1049200006C00884D985C02DF0CF80E001C081E0A9
:10493000DF91CF911F910F9108958091CE05811144
:104940000DC082E08093CA0584E08093CB0510926D
:10495000CD051092CC0581E08093CE058AEC95E0E0
:104960000895EE0FFF1F0590F491E02D099481E06A
:1049700090E0F8940C94C324DC0101C06D93415085
:0A4980005040E0F70895F894FFCFCF
:10498A000108045F01700181018B019201FFFF4E52
:10499A004252514B000001010202010100000103D1
:1049AA000305090000C18081000000FFFFFFFF002E
:1049BA00E10000000000004F7074696F6E730042DE
:1049CA006C61636B2077696E730057686974652040
:1049DA0077696E73005374616C656D617465004E1E
:1049EA0065772047616D65202857686974652900D5
:1049FA004E65772047616D652028426C61636B299B
:104A0A0000556E646F204D6F76650052657475723D
:104A1A006E004C6974746C6520526F6F6B2043682A
:104A2A00657373000EF212EE1FE121DF000110F030
:104A3A00FF0F11EFF1000F11EFF1000110F0FF006D
:104A4A0000000000A804740400000000A804740414
:104A5A000000183C3C183C00001C3E7E6E0E1F1FD6
:104A6A00001C2E3E3E1C087F00557F3E3E3E3E7F88
:104A7A0000553E3E1C3E1C7F081C497F7F3E1C7F22
:104A8A00000000181800000000001C2C04040E008E
:104A9A0000001C1C1C0800000000001C1C1C1C0040
:104AAA000000141C081C0800000000083E1C080036
:104ABA00E217F5170001140A6464323201042896D9
:104ACA0010080000800040001815A015C019FF1832
:104ADA0015A115C819FF1815AE19FF1815AF19FF3A
:104AEA001815AE15D5168015A8163F15D31600153C
:104AFA0040158D16141520160015A115C815DA16BD
:104B0A0012158116CF15D916F115DB1640152E157B
:104B1A00A415A619FF00000000481B1B1BF01AF879
:104B2A001A0B1B1A1B0000000018235F2342235292
:064B3A00232E233F23009F
:00000001FF
